{
  "address": "0x5FbDB2315678afecb367f032d93F642f64180aa3",
  "_format": "hh-sol-artifact-1",
  "contractName": "BWContract",
  "sourceName": "contracts/BWContract.sol",
  "abi": [
    {
      "inputs": [],
      "stateMutability": "nonpayable",
      "type": "constructor"
    },
    {
      "anonymous": false,
      "inputs": [
        {
          "indexed": false,
          "internalType": "bool",
          "name": "isParticipant",
          "type": "bool"
        },
        {
          "indexed": false,
          "internalType": "uint256",
          "name": "ownedTokens",
          "type": "uint256"
        }
      ],
      "name": "becomeAParticipant",
      "type": "event"
    },
    {
      "anonymous": false,
      "inputs": [
        {
          "indexed": false,
          "internalType": "string",
          "name": "destination",
          "type": "string"
        },
        {
          "indexed": false,
          "internalType": "uint256",
          "name": "boughtTicketsNumber",
          "type": "uint256"
        }
      ],
      "name": "buyATicket",
      "type": "event"
    },
    {
      "anonymous": false,
      "inputs": [
        {
          "indexed": false,
          "internalType": "bool",
          "name": "isParticipant",
          "type": "bool"
        },
        {
          "indexed": false,
          "internalType": "uint256",
          "name": "ownedTokens",
          "type": "uint256"
        },
        {
          "indexed": false,
          "internalType": "uint256",
          "name": "stakedEther",
          "type": "uint256"
        }
      ],
      "name": "leavingTheDAO",
      "type": "event"
    },
    {
      "inputs": [],
      "name": "becomeParticipant",
      "outputs": [],
      "stateMutability": "payable",
      "type": "function"
    },
    {
      "inputs": [
        {
          "internalType": "address",
          "name": "",
          "type": "address"
        }
      ],
      "name": "boughtTickets",
      "outputs": [
        {
          "internalType": "uint256",
          "name": "",
          "type": "uint256"
        }
      ],
      "stateMutability": "view",
      "type": "function"
    },
    {
      "inputs": [
        {
          "internalType": "string",
          "name": "_destination",
          "type": "string"
        }
      ],
      "name": "buyTicket",
      "outputs": [],
      "stateMutability": "payable",
      "type": "function"
    },
    {
      "inputs": [],
      "name": "getNumberOfPeople",
      "outputs": [
        {
          "internalType": "uint256",
          "name": "",
          "type": "uint256"
        }
      ],
      "stateMutability": "view",
      "type": "function"
    },
    {
      "inputs": [
        {
          "internalType": "address",
          "name": "",
          "type": "address"
        }
      ],
      "name": "isParticipant",
      "outputs": [
        {
          "internalType": "bool",
          "name": "",
          "type": "bool"
        }
      ],
      "stateMutability": "view",
      "type": "function"
    },
    {
      "inputs": [
        {
          "internalType": "address",
          "name": "",
          "type": "address"
        }
      ],
      "name": "lattestDestination",
      "outputs": [
        {
          "internalType": "string",
          "name": "",
          "type": "string"
        }
      ],
      "stateMutability": "view",
      "type": "function"
    },
    {
      "inputs": [],
      "name": "leaveDAO",
      "outputs": [],
      "stateMutability": "nonpayable",
      "type": "function"
    },
    {
      "inputs": [],
      "name": "max_supply",
      "outputs": [
        {
          "internalType": "uint256",
          "name": "",
          "type": "uint256"
        }
      ],
      "stateMutability": "view",
      "type": "function"
    },
    {
      "inputs": [
        {
          "internalType": "address",
          "name": "",
          "type": "address"
        }
      ],
      "name": "ownedTokens",
      "outputs": [
        {
          "internalType": "uint256",
          "name": "",
          "type": "uint256"
        }
      ],
      "stateMutability": "view",
      "type": "function"
    },
    {
      "inputs": [],
      "name": "selledTickets",
      "outputs": [
        {
          "internalType": "uint256",
          "name": "",
          "type": "uint256"
        }
      ],
      "stateMutability": "view",
      "type": "function"
    },
    {
      "inputs": [],
      "name": "stakePrice",
      "outputs": [
        {
          "internalType": "uint256",
          "name": "",
          "type": "uint256"
        }
      ],
      "stateMutability": "view",
      "type": "function"
    },
    {
      "inputs": [
        {
          "internalType": "address",
          "name": "",
          "type": "address"
        }
      ],
      "name": "stakedEther",
      "outputs": [
        {
          "internalType": "uint256",
          "name": "",
          "type": "uint256"
        }
      ],
      "stateMutability": "view",
      "type": "function"
    },
    {
      "inputs": [],
      "name": "ticketPrice",
      "outputs": [
        {
          "internalType": "uint256",
          "name": "",
          "type": "uint256"
        }
      ],
      "stateMutability": "view",
      "type": "function"
    },
    {
      "inputs": [],
      "name": "viewBalance",
      "outputs": [
        {
          "internalType": "uint256",
          "name": "",
          "type": "uint256"
        }
      ],
      "stateMutability": "view",
      "type": "function"
    },
    {
      "stateMutability": "payable",
      "type": "receive"
    }
  ],
  "bytecode": "0x6080604052600060035534801561001557600080fd5b506706f05b59d3b20000600081905550620186a060018190555067d02ab486cedc00006002819055506119c58061004d6000396000f3fe6080604052600436106100e15760003560e01c8063a023cf691161007f578063e0755ab911610059578063e0755ab9146102cf578063e2803e5f146102d9578063f78c5f0a14610316578063fa30b25114610341576100e8565b8063a023cf691461022a578063b12ab40f14610255578063d732ff5014610292576100e8565b80633f772169116100bb5780633f7721691461016c5780633ff1e05b146101975780638a333b50146101c2578063929066f5146101ed576100e8565b80631209b1f6146100ed5780631de7df411461011857806321d0606c1461012f576100e8565b366100e857005b600080fd5b3480156100f957600080fd5b5061010261035d565b60405161010f9190610ef2565b60405180910390f35b34801561012457600080fd5b5061012d610363565b005b34801561013b57600080fd5b5061015660048036038101906101519190610f7f565b6106a8565b6040516101639190610ef2565b60405180910390f35b34801561017857600080fd5b506101816106c0565b60405161018e9190610ef2565b60405180910390f35b3480156101a357600080fd5b506101ac6106cd565b6040516101b99190610ef2565b60405180910390f35b3480156101ce57600080fd5b506101d76106d5565b6040516101e49190610ef2565b60405180910390f35b3480156101f957600080fd5b50610214600480360381019061020f9190610f7f565b6106db565b6040516102219190610fc7565b60405180910390f35b34801561023657600080fd5b5061023f6106fb565b60405161024c9190610ef2565b60405180910390f35b34801561026157600080fd5b5061027c60048036038101906102779190610f7f565b610701565b6040516102899190610ef2565b60405180910390f35b34801561029e57600080fd5b506102b960048036038101906102b49190610f7f565b610719565b6040516102c69190610ef2565b60405180910390f35b6102d7610731565b005b3480156102e557600080fd5b5061030060048036038101906102fb9190610f7f565b610b75565b60405161030d9190611072565b60405180910390f35b34801561032257600080fd5b5061032b610c15565b6040516103389190610ef2565b60405180910390f35b61035b600480360381019061035691906111c9565b610c1b565b005b60005481565b60011515600860003373ffffffffffffffffffffffffffffffffffffffff1673ffffffffffffffffffffffffffffffffffffffff16815260200190815260200160002060009054906101000a900460ff161515146103f6576040517f08c379a00000000000000000000000000000000000000000000000000000000081526004016103ed9061125e565b60405180910390fd5b6000600860003373ffffffffffffffffffffffffffffffffffffffff1673ffffffffffffffffffffffffffffffffffffffff16815260200190815260200160002060006101000a81548160ff02191690831515021790555060006064600260015461046191906112ad565b61046b919061131e565b90503073ffffffffffffffffffffffffffffffffffffffff166108fc829081150290604051600060405180830381858888f193505050501580156104b3573d6000803e3d6000fd5b506000600760003373ffffffffffffffffffffffffffffffffffffffff1673ffffffffffffffffffffffffffffffffffffffff16815260200190815260200160002081905550806001600082825461050b919061134f565b925050819055503373ffffffffffffffffffffffffffffffffffffffff166108fc6002549081150290604051600060405180830381858888f1935050505015801561055a573d6000803e3d6000fd5b506000600a60003373ffffffffffffffffffffffffffffffffffffffff1673ffffffffffffffffffffffffffffffffffffffff168152602001908152602001600020819055507f8cee146a9d1036bc21fc0cf4f3db84ab18fe8cfca47d3e2ffdc5fbd53dc404e6600860003373ffffffffffffffffffffffffffffffffffffffff1673ffffffffffffffffffffffffffffffffffffffff16815260200190815260200160002060009054906101000a900460ff16600760003373ffffffffffffffffffffffffffffffffffffffff1673ffffffffffffffffffffffffffffffffffffffff16815260200190815260200160002054600a60003373ffffffffffffffffffffffffffffffffffffffff1673ffffffffffffffffffffffffffffffffffffffff1681526020019081526020016000205460405161069d93929190611383565b60405180910390a150565b60096020528060005260406000206000915090505481565b6000600480549050905090565b600047905090565b60015481565b60086020528060005260406000206000915054906101000a900460ff1681565b60025481565b60076020528060005260406000206000915090505481565b600a6020528060005260406000206000915090505481565b60001515600860003373ffffffffffffffffffffffffffffffffffffffff1673ffffffffffffffffffffffffffffffffffffffff16815260200190815260200160002060009054906101000a900460ff161515146107c4576040517f08c379a00000000000000000000000000000000000000000000000000000000081526004016107bb90611406565b60405180910390fd5b6002543414610808576040517f08c379a00000000000000000000000000000000000000000000000000000000081526004016107ff90611498565b60405180910390fd5b620186a06001541115610850576040517f08c379a00000000000000000000000000000000000000000000000000000000081526004016108479061152a565b60405180910390fd5b6001600860003373ffffffffffffffffffffffffffffffffffffffff1673ffffffffffffffffffffffffffffffffffffffff16815260200190815260200160002060006101000a81548160ff0219169083151502179055506000606460026001546108bb91906112ad565b6108c5919061131e565b905080600760003373ffffffffffffffffffffffffffffffffffffffff1673ffffffffffffffffffffffffffffffffffffffff16815260200190815260200160002081905550806001600082825461091d919061154a565b925050819055506005339080600181540180825580915050600190039060005260206000200160009091909190916101000a81548173ffffffffffffffffffffffffffffffffffffffff021916908373ffffffffffffffffffffffffffffffffffffffff160217905550600060405180602001604052806005805480602002602001604051908101604052809291908181526020018280548015610a1657602002820191906000526020600020905b8160009054906101000a900473ffffffffffffffffffffffffffffffffffffffff1673ffffffffffffffffffffffffffffffffffffffff16815260200190600101908083116109cc575b50505050508152509050600481908060018154018082558091505060019003906000526020600020016000909190919091506000820151816000019080519060200190610a64929190610e32565b505050600254600a60003373ffffffffffffffffffffffffffffffffffffffff1673ffffffffffffffffffffffffffffffffffffffff168152602001908152602001600020819055507f3dc3cacb827db68d70e77e137afaedde7a5535e7c61177d3a8109c3d7d76db01600860003373ffffffffffffffffffffffffffffffffffffffff1673ffffffffffffffffffffffffffffffffffffffff16815260200190815260200160002060009054906101000a900460ff16600760003373ffffffffffffffffffffffffffffffffffffffff1673ffffffffffffffffffffffffffffffffffffffff16815260200190815260200160002054604051610b6992919061157e565b60405180910390a15050565b60066020528060005260406000206000915090508054610b94906115d6565b80601f0160208091040260200160405190810160405280929190818152602001828054610bc0906115d6565b8015610c0d5780601f10610be257610100808354040283529160200191610c0d565b820191906000526020600020905b815481529060010190602001808311610bf057829003601f168201915b505050505081565b60035481565b600054341015610c60576040517f08c379a0000000000000000000000000000000000000000000000000000000008152600401610c5790611679565b60405180910390fd5b600054341115610cc4576000805434610c79919061154a565b90503373ffffffffffffffffffffffffffffffffffffffff166108fc829081150290604051600060405180830381858888f19350505050158015610cc1573d6000803e3d6000fd5b50505b3073ffffffffffffffffffffffffffffffffffffffff166108fc60019081150290604051600060405180830381858888f19350505050158015610d0b573d6000803e3d6000fd5b5080600660003373ffffffffffffffffffffffffffffffffffffffff1673ffffffffffffffffffffffffffffffffffffffff1681526020019081526020016000209081610d589190611845565b5060036000815480929190610d6c90611917565b9190505550600354600960003373ffffffffffffffffffffffffffffffffffffffff1673ffffffffffffffffffffffffffffffffffffffff168152602001908152602001600020819055507f15af3caf8144bc0bc46715bd47ca174df8d5b5fcf7050b160c1a8a8006ab01ae81600960003373ffffffffffffffffffffffffffffffffffffffff1673ffffffffffffffffffffffffffffffffffffffff16815260200190815260200160002054604051610e2792919061195f565b60405180910390a150565b828054828255906000526020600020908101928215610eab579160200282015b82811115610eaa5782518260006101000a81548173ffffffffffffffffffffffffffffffffffffffff021916908373ffffffffffffffffffffffffffffffffffffffff16021790555091602001919060010190610e52565b5b509050610eb89190610ebc565b5090565b5b80821115610ed5576000816000905550600101610ebd565b5090565b6000819050919050565b610eec81610ed9565b82525050565b6000602082019050610f076000830184610ee3565b92915050565b6000604051905090565b600080fd5b600080fd5b600073ffffffffffffffffffffffffffffffffffffffff82169050919050565b6000610f4c82610f21565b9050919050565b610f5c81610f41565b8114610f6757600080fd5b50565b600081359050610f7981610f53565b92915050565b600060208284031215610f9557610f94610f17565b5b6000610fa384828501610f6a565b91505092915050565b60008115159050919050565b610fc181610fac565b82525050565b6000602082019050610fdc6000830184610fb8565b92915050565b600081519050919050565b600082825260208201905092915050565b60005b8381101561101c578082015181840152602081019050611001565b60008484015250505050565b6000601f19601f8301169050919050565b600061104482610fe2565b61104e8185610fed565b935061105e818560208601610ffe565b61106781611028565b840191505092915050565b6000602082019050818103600083015261108c8184611039565b905092915050565b600080fd5b600080fd5b7f4e487b7100000000000000000000000000000000000000000000000000000000600052604160045260246000fd5b6110d682611028565b810181811067ffffffffffffffff821117156110f5576110f461109e565b5b80604052505050565b6000611108610f0d565b905061111482826110cd565b919050565b600067ffffffffffffffff8211156111345761113361109e565b5b61113d82611028565b9050602081019050919050565b82818337600083830152505050565b600061116c61116784611119565b6110fe565b90508281526020810184848401111561118857611187611099565b5b61119384828561114a565b509392505050565b600082601f8301126111b0576111af611094565b5b81356111c0848260208601611159565b91505092915050565b6000602082840312156111df576111de610f17565b5b600082013567ffffffffffffffff8111156111fd576111fc610f1c565b5b6112098482850161119b565b91505092915050565b7f596f7520617265206e6f74207061727469636970616e74000000000000000000600082015250565b6000611248601783610fed565b915061125382611212565b602082019050919050565b600060208201905081810360008301526112778161123b565b9050919050565b7f4e487b7100000000000000000000000000000000000000000000000000000000600052601160045260246000fd5b60006112b882610ed9565b91506112c383610ed9565b92508282026112d181610ed9565b915082820484148315176112e8576112e761127e565b5b5092915050565b7f4e487b7100000000000000000000000000000000000000000000000000000000600052601260045260246000fd5b600061132982610ed9565b915061133483610ed9565b925082611344576113436112ef565b5b828204905092915050565b600061135a82610ed9565b915061136583610ed9565b925082820190508082111561137d5761137c61127e565b5b92915050565b60006060820190506113986000830186610fb8565b6113a56020830185610ee3565b6113b26040830184610ee3565b949350505050565b7f596f752061726520616c72656164792061206d656d6265720000000000000000600082015250565b60006113f0601883610fed565b91506113fb826113ba565b602082019050919050565b6000602082019050818103600083015261141f816113e3565b9050919050565b7f596f75206861766520746f207374616b652031352065746865727320696e206f60008201527f7264657220746f206265636f6d652061206d656d626572000000000000000000602082015250565b6000611482603783610fed565b915061148d82611426565b604082019050919050565b600060208201905081810360008301526114b181611475565b9050919050565b7f5468657265206973206e6f206d6f726520746f6b656e73206176616961626c6560008201527f2c20736f727279203a2800000000000000000000000000000000000000000000602082015250565b6000611514602a83610fed565b915061151f826114b8565b604082019050919050565b6000602082019050818103600083015261154381611507565b9050919050565b600061155582610ed9565b915061156083610ed9565b92508282039050818111156115785761157761127e565b5b92915050565b60006040820190506115936000830185610fb8565b6115a06020830184610ee3565b9392505050565b7f4e487b7100000000000000000000000000000000000000000000000000000000600052602260045260246000fd5b600060028204905060018216806115ee57607f821691505b602082108103611601576116006115a7565b5b50919050565b7f596f75206d75737420706179203530303030303030303030303030303030302060008201527f7765690000000000000000000000000000000000000000000000000000000000602082015250565b6000611663602383610fed565b915061166e82611607565b604082019050919050565b6000602082019050818103600083015261169281611656565b9050919050565b60008190508160005260206000209050919050565b60006020601f8301049050919050565b600082821b905092915050565b6000600883026116fb7fffffffffffffffffffffffffffffffffffffffffffffffffffffffffffffffff826116be565b61170586836116be565b95508019841693508086168417925050509392505050565b6000819050919050565b600061174261173d61173884610ed9565b61171d565b610ed9565b9050919050565b6000819050919050565b61175c83611727565b61177061176882611749565b8484546116cb565b825550505050565b600090565b611785611778565b611790818484611753565b505050565b5b818110156117b4576117a960008261177d565b600181019050611796565b5050565b601f8211156117f9576117ca81611699565b6117d3846116ae565b810160208510156117e2578190505b6117f66117ee856116ae565b830182611795565b50505b505050565b600082821c905092915050565b600061181c600019846008026117fe565b1980831691505092915050565b6000611835838361180b565b9150826002028217905092915050565b61184e82610fe2565b67ffffffffffffffff8111156118675761186661109e565b5b61187182546115d6565b61187c8282856117b8565b600060209050601f8311600181146118af576000841561189d578287015190505b6118a78582611829565b86555061190f565b601f1984166118bd86611699565b60005b828110156118e5578489015182556001820191506020850194506020810190506118c0565b8683101561190257848901516118fe601f89168261180b565b8355505b6001600288020188555050505b505050505050565b600061192282610ed9565b91507fffffffffffffffffffffffffffffffffffffffffffffffffffffffffffffffff82036119545761195361127e565b5b600182019050919050565b600060408201905081810360008301526119798185611039565b90506119886020830184610ee3565b939250505056fea2646970667358221220d131e0e03c3f2da140c87023427b9f12a1e616069b14738e2eed8a5b405fc3e764736f6c63430008110033",
  "linkReferences": {},
  "deployedLinkReferences": {}
}